S01600004652444D2D4B4C32355A2D554152542E6865785F
S113000000300020C10900006109000061090000FE
S113001000000000000000000000000000000000DC
S11300200000000000000000000000006109000062
S113003000000000000000006109000061090000E8
S11300406109000061090000610900006109000004
S113005061090000610900006109000061090000F4
S113006061090000610900006109000061090000E4
S113007061090000610900006109000061090000D4
S113008061090000610900006109000061090000C4
S113009061090000610900006109000061090000B4
S11300A061090000610900006109000061090000A4
S11300B06109000061090000610900006109000094
S1130800002934D00123002210B488422CD30124BF
S11308102407A14204D2814202D209011B01F8E754
S1130820E400A14204D2814202D249005B00F8E70D
S1130830884201D3401A1A434C08A04202D3001B39
S11308405C0822438C08A04202D3001B9C0822436C
S1130850CC08A04202D3001BDC082243002803D0AA
S11308601B0901D00909E3E7101C10BC70470028DC
S113087001D00020C04307B4024802A140180290EE
S113088003BDC046D90000000029F0D003B5FFF72E
S1130890B9FF0EBC4243891A1847C046002941D00B
S11308A010B4041C4C40A44601230022002900D5A6
S11308B04942002800D5404288422CD30124240711
S11308C0A14204D2814202D209011B01F8E7E400EB
S11308D0A14204D2814202D249005B00F8E7884277
S11308E001D3401A1A434C08A04202D3001B5C08EF
S11308F022438C08A04202D3001B9C082243CC084C
S1130900A04202D3001BDC082243002803D01B09A9
S113091001D00909E3E7101C6446002C00D54042CD
S113092010BC7047002806D003DB0020C0434008F9
S113093001E08020000607B4024802A1401802909A
S113094003BDC046190000000029EBD003B5FFF732
S1130950A7FF0EBC4243891A1847C0467047C046D9
S113096080B500AF00BEBD4680BDC04680B500AFB7
S1130970064A0749074BD150074A88235B010021E7
S1130980D15000F08DFCBD4680BDC04600E000E0C3
S113099000000000080D00000070044080B500AFA6
S11309A0054A064BD31A054A101C00211A1C00F0F4
S11309B0A7FDBD4680BDC04638F0FF1F00F0FF1FF5
S11309C000F06EFEFFF7D2FFFFF7E8FF00F040FEF5
S11309D000F0DCFD00F072FE044B0020191C00F056
S11309E0F5FC031C181C00F06FFDC04600F0FF1F4F
S11309F080B582B000AF7860FEE7C04680B582B0B3
S1130A0000AF786007E07B681B787A6801327A600F
S1130A10181C00F013F87B681B78002BF3D1BD463B
S1130A2002B080BD80B500AF034B181C00F00EFC73
S1130A30031C181CBD4680BD00A0064080B582B0D2
S1130A4000AF021CFB1D1A70044AFB1D1B78101C0E
S1130A50191C00F00FFCBD4602B080BD00A006408A
S1130A6080B500AF154A1549154BCB58A021490153
S1130A701943134BD150134B802252009A64114BEB
S1130A8080225200DA64104B802252005A600F4BCD
S1130A900E4A52698021C9020A435A610B4B0B4A20
S1130AA05269802109030A435A61094B084A526971
S1130AB002210A435A61BD4680BDC046007004400D
S1130AC03810000000A0044000C0044040F00F4073
S1130AD0C0F00F4080B586B000AF7860081C111CD0
S1130AE01A1CFB1C1870BB1C19707B1C1A70C24B9F
S1130AF09B79DBB21A1C0C2313409B080DD1BE4B0F
S1130B009B79DBB21A1C1023134006D0BA4B9B7995
S1130B10DBB21A1C2023134001D0012373E27A684C
S1130B20B64B9A4201DD21236DE2BB1C1B78002BDE
S1130B3009D07A68B24B9A4203DD7A68B14B9A4283
S1130B4001DD22235FE2FB1C1B78002B02D0FB1C7F
S1130B5001221A707B1C1B785BB2002B04DD7B1C0A
S1130B601B785BB2192B01DD41234CE23B1C203383
S1130B701B785BB2172B05DD3B1C20331B785BB263
S1130B80322B01DD42233EE27B1C1B785BB278688A
S1130B90191CFFF783FE031C3B613A699A4B9A4286
S1130BA003DD3A69994B9A4201DD43232BE27B1C16
S1130BB01B785BB27868191CFFF770FE031C3A1CA3
S1130BC02032127852B25343FB60FA68904B9A4237
S1130BD003DDFA688F4B9A4201DD452313E2864A0E
S1130BE03B1C163352781A703B1C16333A1C1632CF
S1130BF012783C218A431A707A68874B9A4214DC33
S1130C00FB1C1B78DB00DAB2BB1C1B789B00DBB23D
S1130C101343DAB23B1C16331B781343DAB23B1C82
S1130C20163310210A431A7013E0FB1C1B78DB00F7
S1130C30DAB2BB1C1B789B00DBB21343DAB23B1C59
S1130C4016331B781343DAB23B1C163320210A43B4
S1130C501A70694B3A1C163212785A707A686F4BC4
S1130C609A4204DC3B1C173300221A7027E07A688E
S1130C706B4B9A4204DC3B1C173301221A701EE0B2
S1130C807A68684B9A4204DC3B1C173302221A70C0
S1130C9015E07A68644B9A4204DC3B1C1733032248
S1130CA01A700CE07A68614B9A4204DC3B1C1733DF
S1130CB004221A7003E03B1C173305221A704E4AB3
S1130CC03B1C163312781A703B1C16333A1C16322E
S1130CD0117803220A401A703B1C17331B78DB007F
S1130CE0DAB238231340DAB23B1C16331B781343B1
S1130CF0DAB23B1C1633802149420A431A703E4B38
S1130D003A1C163212781A70BB1C1B78002B24D0A4
S1130D103B1C143300221A800DE0374B9B79DBB265
S1130D201A1C022313400ED13B1C14333A1C1432F8
S1130D30128801321A803B1C143300215A5E3C4B4A
S1130D409A42EADD00E0C0462B4B9B79DBB21A1CC9
S1130D500223134001D1232355E13B1C1433002209
S1130D601A800DE0244B9B79DBB21A1C102313402C
S1130D700ED03B1C14333A1C1432128801321A80F0
S1130D803B1C143300215A5E2A4B9A42EADD00E0F0
S1130D90C046194B9B79DBB21A1C1023134001D0B7
S1130DA0112330E13B1C143300221A800FE0124B54
S1130DB09B79DBB21A1C0C2313409B08022B0ED028
S1130DC03B1C14333A1C1432128801321A803B1C27
S1130DD0143300215A5E174B9A42E8DD00E0C04606
S1130DE0054B9B79DBB21A1C0C2313409B08022B86
S1130DF022D01A2307E1C0460040064080F0FA02E0
S1130E00BFC62D000048E8017F841E0000093D0094
S1130E10FF6BDC0200E1F50500127A00D01213002A
S1130E20A0252600404B4C0080969800002D3101EF
S1130E301F4E0000CF070000754B754A5279D2B29D
S1130E4020210A43D2B25A71714A3B1C16331279DB
S1130E501A703B1C16333A1C163212781F218A432F
S1130E601A707B1C1B78013BDAB21F231340D9B2E2
S1130E703B1C16333A1C163212780A431A70644B20
S1130E803A1C163212781A71614A3B1C1633527995
S1130E901A703B1C16333A1C163212781F218A43EF
S1130EA01A703B1C20331B78183BDAB21F23134003
S1130EB0DAB23B1C16331B781343DAB23B1C1633ED
S1130EC040210A431A70524B3A1C163212785A7156
S1130ED03B1C143300221A800DE04D4B9B79DBB28E
S1130EE01A1C202313400ED13B1C14333A1C143219
S1130EF0128801321A803B1C143300215A5E454B80
S1130F009A42EADD00E0C046414B9B79DBB21A1CF1
S1130F102023134001D1162375E03B1C1433002217
S1130F201A800DE03A4B9B79DBB21A1C4023134024
S1130F300ED13B1C14333A1C1432128801321A802D
S1130F403B1C143300215A5E334B9A42EADD00E025
S1130F50C0462F4B9B79DBB21A1C4023134001D1AE
S1130F60442350E02A4B1B79DAB21F231340DAB230
S1130F703B1C0B3301321A70254B5B79DAB21F2309
S1130F801340DAB23B1C0A3318321A70204B204A41
S1130F901278D1B23F220A40D2B21A703B1C1433E9
S1130FA000221A800FE01A4B9B79DBB21A1C0C2327
S1130FB013409B08032B0ED03B1C14333A1C1432F1
S1130FC0128801321A803B1C143300215A5E114BE3
S1130FD09A42E8DD00E0C0460D4B9B79DBB21A1C57
S1130FE00C2313409B08032B01D01B230BE03B1C59
S1130FF00B331B787868191CFFF750FC031C3A1C50
S11310000A3212785343181CBD4606B080BDC04650
S113101000400640CF0700009F0F000080B58EB04F
S113102000AFF860B9607A6000237B6200233B6301
S11310300023FB6200233B620023BB627D4A7D499F
S11310407D4BCB588021C90019437B4BD1507B4B3E
S11310507A4AD278D2B20C218A43D2B2DA70BA6810
S1131060774B9A4202DCBB681F2B0EDC0023BB606B
S1131070704A744BD3583B623A6A734B13403B62D9
S11310806C4A704B396AD150FEE77B68FB61BB68E0
S1131090FA2292005343BB613B1C373304221A707B
S11310A03B1C37331B78FA695343B869191CFFF7A3
S11310B0A7FB031C7B613B1C37331B787A695343C2
S11310C0B869191CFFF79CFB031C7B627A6AFB69F5
S11310D09A4204D97A6AFB69D31A3B6303E0FA693A
S11310E07B6AD31A3B633B1C37331B78FB623B1C84
S11310F0373305221A7033E03B1C37331B78FA6907
S11311005343B869191CFFF77BFB031C7B613B1C31
S113111037331B787A695343B869191CFFF770FB9E
S1131120031C7B627A6AFB699A4204D97A6AFB6976
S1131130D31ABB6203E0FA697B6AD31ABB62BA6A48
S11311403B6B9A4205D8BB6A3B633B1C37331B7825
S1131150FB623B1C37333A1C3732127801321A7067
S11311603B1C37331B78202BC6D9FB69181C642120
S1131170FFF746FB031C1A1C131C5B009A183B6BFD
S11311809A4253D9FB6A032B0AD9FB6A082B07D866
S11311902A4B2A4AD27AD2B202210A43D2B2DA7252
S11311A0264B9B7ADBB23B623B6A1F2293433B6232
S11311B0FB6ADBB2013BDBB21A1C1F2313403A6A01
S11311C013433B621D4B3A6AD2B29A723A6A1F23A6
S11311D0134001333B62FB693A6A5343B869191CF3
S11311E0FFF70EFB031C7B61144B1B78DBB21F2241
S11311F093433B62114B7969F82252010A40120A67
S1131200D1B21F220A40D1B23A6AD2B20A43D2B250
S11312101A700A4B7A69D2B25A70084B074AD278CC
S1131220D2B20C210A43D2B2DA7000E0FEE7BD4626
S11312300EB080BD007004403410000000A00640D1
S113124050C3000004100000FFFFFFF380B582B01C
S113125000AF7860C0467B681B79DBB21A1C202380
S11312601340F8D07B68DB79DBB2181CBD4602B0B2
S113127080BDC04680B582B000AF78600A1CFB1CFC
S11312801A70C0467B681B79DBB2DBB25BB2002B01
S1131290F8DA7B68FA1C1278DA71BD4602B080BDB8
S11312A080B582B002AF3D4A3C493D4BCB58F82152
S11312B0890119433A4BD150384A3A4B80214902AB
S11312C0D150394B1822009201220192181C00219E
S11312D001220423FFF7FEFB021C344B1A60334B3C
S11312E01B68181CFA239900FFF7D8FA031C1A1C70
S11312F02F4B1A602E4B1B681A1C2849294BCB58BC
S11313001B0F0133101C191CFFF77AFA031C1A1C5B
S1131310284B1A60274B1B681A1C2049214BC958BB
S1131320E023DB020B401B0C0133101C191CFFF7DC
S113133067FA031C1A1C204B1A60184A17491F4BE2
S1131340CB588021490219431C4BD1501C4B80229D
S113135092005A601A4B802292009A600F4A0F49F9
S1131360164BCB588021C9041943144BD1500F4B51
S11313701B68181CFA23D900FFF790FA031C1A1CE7
S1131380104B1A600F4B1A680F4996239B01081CD7
S1131390111C1A1CFFF742FEBD4680BD00700440BC
S11313A0381000004410000000127A001CF0FF1FE7
S11313B030F0FF1F20F0FF1F24F0FF1F0410000077
S11313C00090044028F0FF1F00A0064090B583B0B1
S11313D000AFFFF745FB314B181CFFF70FFBFC1D5B
S11313E0FFF720FB031C23702D4B181CFFF706FB93
S11313F0FB1D1B78181CFFF721FBFB1D1B78522BD0
S113140008D1284B181CFFF7F9FA274B8022D20287
S11314109A60E4E7FB1D1B78722B08D1234B181C40
S1131420FFF7ECFA204B8022D2025A60D7E7FB1D6B
S11314301B78472B08D11E4B181CFFF7DFFA1A4BF9
S1131440802212039A60CAE7FB1D1B78672B08D120
S1131450184B181CFFF7D2FA134B802212035A6060
S1131460BDE7FB1D1B78422B07D1134B181CFFF75C
S1131470C5FA124B02229A60B1E7FB1D1B78622B5E
S113148007D10F4B181CFFF7B9FA0C4B02225A6014
S1131490A5E70C4B181CFFF7B1FAA0E7C016000033
S11314A0E0160000FC16000040F00F401817000082
S11314B0301700004C17000064170000C0F00F4004
S11314C0801700009817000038B5051C00F0DAF802
S11314D000F080F8084C2368002B02D098470020C5
S11314E02060064C2168002902D08847002222602F
S11314F0281CFFF77DFA38BD04F0FF1F08F0FF1F1A
S113150010B5041C00F002F8201C10BD30B5C9B29F
S1131510031C1F2A31D944420323234005D0D21A85
S1131520C51801700130A842FBD1002905D00D0671
S11315300C042C430B02214319435409031C002CB3
S11315400ED0251C013D196059609960D96019615C
S113155059619961D9612033002DF3D16301C31816
S1131560D006400F07D0041C1D1C013C02C5002CF2
S1131570FBD180001B18032422409D18002A03D0AD
S113158019700133AB42FBD130BD000010B50B4CD8
S11315900B4B9C4202D001CC8047F9E7094C0A4826
S11315A0844202D008CC9847F9E7084C08498C4299
S11315B002D004CC9047F9E710BDC046B417000030
S11315C0B4170000B4170000B4170000B4170000EB
S11315D0B417000010B5084C084B9C4202D004CC50
S11315E09047F9E7064C0748844203D0043C21683D
S11315F08847F8E710BDC046B4170000B4170000D0
S1131600B4170000B417000000B588421FD0002AA8
S11316101DD00323194207D1184205D19A4203D998
S113162008C9043A08C0F2E70123194209D1184253
S113163007D19A4205D90B88023A0380023102305D
S1131640E5E70B78013A037001310130DFE700BDB3
S113165038B50B4D002D11D000242B191968002921
S113166006D02B1958689A68FFF7CEFF0C34F4E7BC
S11316705A68002AF5D198680028F2D138BDC046CE
S1131680B4170000054B10B51C68002C04D0A068EA
S1131690616888472468F8E710BDC04618F0FF1F4A
S11316A0054B181C002805D0854681B00020C04396
S11316B0009001B0F746704700300020F7467047AD
S11316C00D0A204B4C32355A202B20424C554554A0
S11316D04F4F5448202B20554152540D0A0000000E
S11316E00D0A20656C206461746F207265636976ED
S11316F069646F20667565200D0A00000D0A204C90
S1131700656420726F6A6F20656E63656E646964D8
S11317106F200D0A000000000D0A204C6564207241
S11317206F6A6F206170616761646F200D0A000049
S11317300D0A204C656420766572646520656E63CD
S1131740656E6469646F200D0A0000000D0A204C68
S11317506564207665726465206170616761646F99
S1131760200D0A000D0A204C656420617A756C20F6
S1131770656E63656E6469646F200D0A0000000085
S11317800D0A204C656420617A756C206170616774
S113179061646F200D0A00000D0A20636F6D616E95
S11317A0646F2065717569766F6361646F200D0ADB
S10717B00000000031
S11317B4B417000000F0FF1F000000000000000048
S10B17C4000000000000000019
S90309C132
